:100000000C9446000C9465000C9465000C946500FB
:100010000C9465000C9465000C9465000C946500CC
:100020000C9465000C9465000C9465000C946500BC
:100030000C9465000C94B5000C9465000C9465005C
:100040000C9465000C9465000C9465000C9465009C
:100050000C9465000C9465000C9465000C9465008C
:100060000C9465000C9465000C9465000C9465007C
:100070000C9465000C9465000C9465000C9465006C
:100080000C9465000C9465000C94650011241FBE4F
:10009000CFEFD0E4DEBFCDBF11E0A0E0B1E0E4ECF3
:1000A000F4E000E00BBF02C007900D92A430B1074E
:1000B000D9F721E0A4E0B1E001C01D92AD30B20754
:1000C000E1F70E9434020C9460020C940000CF937C
:1000D000DF93CDB7DEB781E890E02BE0FC01208311
:1000E00088E890E02DE730E0FC01318320838FE643
:1000F00090E022E0FC01208384E890E0FC01118282
:1001000010828091000190910101A0910201B091B3
:1001100003018093050190930601A0930701B0931A
:1001200008018FE590E02FE530E0F901208120689B
:10013000FC0120830000DF91CF910895CF93DF93DE
:10014000CDB7DEB781E890E0FC0110820000DF91BE
:10015000CF910895CF93DF93CDB7DEB781E0809341
:1001600004010000DF91CF9108951F920F9200903B
:100170005F000F92112400905B000F922F933F932A
:100180004F935F936F937F938F939F93AF93BF939F
:10019000EF93FF93CF93DF93CDB7DEB78091050147
:1001A00090910601A0910701B09108010197A10962
:1001B000B1098093050190930601A0930701B093C4
:1001C00008018091050190910601A0910701B0916D
:1001D0000801892B8A2B8B2B91F40E94AA00809115
:1001E000000190910101A0910201B091030180935F
:1001F000050190930601A0930701B0930801000048
:10020000DF91CF91FF91EF91BF91AF919F918F912E
:100210007F916F915F914F913F912F910F9000923D
:100220005B000F9000925F000F901F901895CF9386
:10023000DF9300D000D0CDB7DEB769837A838B839C
:100240009C8389819A81AB81BC81809300019093CA
:100250000101A0930201B0930301809100019091EC
:100260000101A0910201B0910301809305019093D7
:100270000601A0930701B093080100000F900F90B2
:100280000F900F90DF91CF910895CF93DF93CDB76B
:10029000DEB780910B0190910C0182309105A1F1A4
:1002A0008330910528F4009759F0019781F077C0C9
:1002B0008330910509F445C0049709F45DC06FC00F
:1002C00081E090E090930C0180930B016EC080E27E
:1002D00090E0FC018081882F90E081709927892B24
:1002E00061F484E090E090930C0180930B0181E035
:1002F00090E090930A018093090182E090E090934E
:100300000C0180930B0151C080E290E0FC018081E0
:10031000882F90E081709927892B61F484E090E028
:1003200090930C0180930B0182E090E090930A017E
:100330008093090183E090E090930C0180930B017E
:1003400034C080E290E0FC018081882F90E002962A
:1003500061F484E090E090930C0180930B0183E0C2
:1003600090E090930A018093090181E090E09093DE
:100370000C0180930B0119C080E290E0FC018081A8
:1003800080E290E0FC018081882F90E081709927C5
:10039000892B51F410920C0110920B0105C01092A0
:1003A0000C0110920B0101C0000080910B01909193
:1003B0000C0182309105A9F08330910530F400974B
:1003C00009F44BC0019739F04BC08330910579F0A7
:1003D000049799F045C085E290E021E0FC0120837C
:1003E0003FC085E290E022E0FC01208339C085E235
:1003F00090E024E0FC01208333C0809109019091BA
:100400000A01019751F485E290E021E0FC0120838C
:1004100010920A011092090122C080910901909165
:100420000A01029751F485E290E022E0FC0120836A
:1004300010920A011092090112C080910901909155
:100440000A01039761F485E290E024E0FC01208337
:1004500010920A011092090102C0000001C00000C0
:100460000000DF91CF910895CF93DF93CDB7DEB732
:1004700081E290E0FC01108282E290E02FEFFC012B
:10048000208384E290E02FEFFC01208385E290E05E
:10049000FC0110826CE271E080E090E00E941701A4
:1004A0000E94670010920C0110920B010E944501FE
:1004B0000000809104018823E1F310920401F6CF3B
:0404C000F894FFCFDE
:0404C4000100000033
:00000001FF
