:100000000C9446000C9465000C9465000C946500FB
:100010000C9465000C9465000C9465000C946500CC
:100020000C9465000C9465000C9465000C946500BC
:100030000C9465000C94B0010C9465000C94650060
:100040000C9465000C9465000C9465000C9465009C
:100050000C9465000C9465000C9465000C9465008C
:100060000C9465000C9465000C9465000C9465007C
:100070000C9465000C9465000C9465000C9465006C
:100080000C9465000C9465000C94650011241FBE4F
:10009000CFEFD0E4DEBFCDBF11E0A0E0B1E0E6EFEE
:1000A000F6E000E00BBF02C007900D92A430B1074C
:1000B000D9F721E0A4E0B1E001C01D92AB30B20756
:1000C000E1F70E9448030C9479030C940000CF934D
:1000D000DF93CDB7DEB781E00E948E000000DF9194
:1000E000CF910895CF93DF93CDB7DEB784E690E04C
:1000F0000E94320188E30E948E0086E00E948E00FA
:100100008FE00E948E0081E00E948E008AE090E0E5
:100110000E9432010000DF91CF910895CF93DF93C9
:100120001F92CDB7DEB789838BE290E02BE230E0FF
:10013000F90120812F7BFC01208388E290E0298156
:10014000FC0120838BE290E02BE230E0F90120817A
:100150002068FC01208300008BE290E02BE230E07D
:10016000F90120812F77FC01208382E090E00E943A
:10017000320100000F90DF91CF910895CF93DF936C
:100180001F92CDB7DEB789838BE290E02BE230E09F
:10019000F90120812064FC01208388E290E029811C
:1001A000FC0120838BE290E02BE230E0F90120811A
:1001B0002068FC01208300008BE290E02BE230E01D
:1001C000F90120812F77FC01208381E090E00E94DB
:1001D000320100000F90DF91CF910895CF93DF930C
:1001E00000D000D0CDB7DEB78A837C836B830E94BA
:1001F00067008A81898311C0898191E0980F998372
:100200000E941B018B819C819C012F5F3F4F3C838F
:100210002B83FC0180810E94BE008B819C81FC01AC
:100220008081882349F700000F900F900F900F9066
:10023000DF91CF910895CF93DF931F92CDB7DEB7B3
:1002400089838981813128F4898181580E948E00B7
:1002500004C0898181550E948E0000000F90DF91BB
:10026000CF910895CF93DF9300D000D000D0CDB7C9
:10027000DEB79E838D831A82198213C01C821B8273
:1002800006C000008B819C8101969C838B838B81AF
:100290009C8187309340ACF389819A8101969A833F
:1002A000898329813A818D819E812817390734F30A
:1002B000000026960FB6F894DEBF0FBECDBFDF91CB
:1002C000CF910895CF93DF93CDB7DEB781E890E06B
:1002D0002BE0FC01208388E890E02DE730E0FC0172
:1002E000318320838FE690E022E0FC01208384E8C4
:1002F00090E0FC0111821082809100019091010137
:10030000A0910201B0910301809305019093060131
:10031000A0930701B09308018FE590E02FE530E04E
:10032000F90120812068FC0120830000DF91CF913A
:100330000895CF93DF93CDB7DEB781E890E0FC015D
:1003400010820000DF91CF910895CF93DF93CDB756
:10035000DEB781E0809304010000DF91CF91089522
:100360001F920F9200905F000F92112400905B008B
:100370000F922F933F934F935F936F937F938F933E
:100380009F93AF93BF93EF93FF93CF93DF93CDB73B
:10039000DEB78091050190910601A0910701B0910F
:1003A00008010197A109B109809305019093060105
:1003B000A0930701B0930801809105019091060177
:1003C000A0910701B0910801892B8A2B8B2B91F406
:1003D0000E94A5018091000190910101A09102016C
:1003E000B09103018093050190930601A09307014A
:1003F000B09308010000DF91CF91FF91EF91BF9181
:10040000AF919F918F917F916F915F914F913F91AC
:100410002F910F9000925B000F9000925F000F9061
:100420001F901895CF93DF9300D000D0CDB7DEB7E3
:1004300069837A838B839C8389819A81AB81BC8118
:100440008093000190930101A0930201B0930301F6
:100450008091000190910101A0910201B0910301EE
:100460008093050190930601A0930701B0930801C2
:1004700000000F900F900F900F90DF91CF91089593
:10048000CF93DF9300D01F92CDB7DEB71A821982C7
:1004900080E290E0FC01808180958F708B83809159
:1004A000090190910A018230910509F441C083301D
:1004B000910528F4009779F00197A1F07DC0843070
:1004C000910509F46BC08430910508F460C005976C
:1004D00009F46BC071C081E090E090930A018093B1
:1004E000090170C080E290E0FC01808180958F70EE
:1004F0008B838B81813039F483E090E090930A0103
:10050000809309015EC08B81823039F484E090E0F1
:1005100090930A018093090154C08B81833009F0C4
:1005200050C085E090E090930A018093090149C092
:1005300080E290E0FC01808180958F708B838B81BD
:10054000813039F483E090E090930A0180930901AF
:1005500039C08B81823039F484E090E090930A01B5
:10056000809309012FC08B81813051F48B818230BF
:1005700039F485E090E090930A018093090122C04C
:1005800081E090E090930A01809309011BC082E012
:1005900090E090930A018093090114C082E090E0FA
:1005A00090930A01809309010DC082E090E090933E
:1005B0000A018093090106C010920A0110920901F4
:1005C00001C000008091090190910A0183309105DA
:1005D00099F08430910538F48130910551F00297FB
:1005E00009F44AC04EC08430910511F10597E1F13C
:1005F00048C01A82198245C088E290E0FC018081DF
:100600008930E0F588E290E028E230E0F9012081CD
:100610002F5FFC01208388E290E0FC018081882F1D
:1006200090E09A8389838981805D0E94BE0026C004
:1006300088E290E0FC018081882311F188E290E05B
:1006400028E230E0F90120812150FC01208388E27A
:1006500090E0FC018081882F90E09A8389838981D2
:10066000805D0E94BE000CC088E290E0FC01108218
:1006700080E30E94BE0005C0000003C0000001C06E
:10068000000000000F900F900F90DF91CF91089520
:10069000CF93DF93CDB7DEB781E290E0FC0110820B
:1006A00082E290E02FEFFC01208387E290E02FEFC1
:1006B000FC01208388E290E0FC0110828AE290E055
:1006C0002FEFFC0120838BE290E0FC01108264EFAD
:1006D00071E080E090E00E9412020E9462010E949C
:1006E00040020000809104018823E1F3109204018C
:0606F000F6CFF894FFCFE5
:0406F60001000000FF
:00000001FF
