:100000000C9446000C9465000C9465000C946500FB
:100010000C9465000C9465000C9465000C946500CC
:100020000C9465000C9465000C9465000C946500BC
:100030000C9465000C94B5000C9465000C9465005C
:100040000C9465000C9465000C9465000C9465009C
:100050000C9465000C9465000C9465000C9465008C
:100060000C9465000C9465000C9465000C9465007C
:100070000C9465000C9465000C9465000C9465006C
:100080000C9465000C9465000C94650011241FBE4F
:10009000CFEFD0E4DEBFCDBF11E0A0E0B1E0E4E8F7
:1000A000F3E000E00BBF02C007900D92A430B1074F
:1000B000D9F721E0A4E0B1E001C01D92AB30B20756
:1000C000E1F70E94A1010C94C0010C940000CF93B1
:1000D000DF93CDB7DEB781E890E02BE0FC01208311
:1000E00088E890E02DE730E0FC01318320838FE643
:1000F00090E022E0FC01208384E890E0FC01118282
:1001000010828091000190910101A0910201B091B3
:1001100003018093050190930601A0930701B0931A
:1001200008018FE590E02FE530E0F901208120689B
:10013000FC0120830000DF91CF910895CF93DF93DE
:10014000CDB7DEB781E890E0FC0110820000DF91BE
:10015000CF910895CF93DF93CDB7DEB781E0809341
:1001600004010000DF91CF9108951F920F9200903B
:100170005F000F92112400905B000F922F933F932A
:100180004F935F936F937F938F939F93AF93BF939F
:10019000EF93FF93CF93DF93CDB7DEB78091050147
:1001A00090910601A0910701B09108010197A10962
:1001B000B1098093050190930601A0930701B093C4
:1001C00008018091050190910601A0910701B0916D
:1001D0000801892B8A2B8B2B91F40E94AA00809115
:1001E000000190910101A0910201B091030180935F
:1001F000050190930601A0930701B0930801000048
:10020000DF91CF91FF91EF91BF91AF919F918F912E
:100210007F916F915F914F913F912F910F9000923D
:100220005B000F9000925F000F901F901895CF9386
:10023000DF9300D000D0CDB7DEB769837A838B839C
:100240009C8389819A81AB81BC81809300019093CA
:100250000101A0930201B0930301809100019091EC
:100260000101A0910201B0910301809305019093D7
:100270000601A0930701B093080100000F900F90B2
:100280000F900F90DF91CF910895CF93DF93CDB76B
:10029000DEB78091090190910A018130910581F0CA
:1002A0008130910530F08230910589F00397B1F0EB
:1002B0001CC081E090E090930A01809309011AC06C
:1002C00082E090E090930A018093090113C083E0DB
:1002D00090E090930A01809309010CC081E090E0C6
:1002E00090930A018093090105C010920A011092AF
:1002F000090100008091090190910A018130910566
:1003000049F081309105C0F08230910549F00397A2
:1003100069F013C085E290E021E0FC0120830DC06C
:1003200085E290E022E0FC01208307C085E290E0B6
:1003300024E0FC01208301C000000000DF91CF9188
:100340000895CF93DF93CDB7DEB784E290E02FEF2F
:10035000FC01208385E290E0FC01108268EE73E0EE
:1003600080E090E00E9417010E9467000E94450112
:100370000000809104018823E1F310920401F6CF7C
:04038000F894FFCF1F
:040384000100000074
:00000001FF
